:020000040040BA
:1000000060294020F5124000A5134000A5134000D0
:10001000A5134000A5134000A513400000000000F8
:10002000000000000000000000000000A5134000D8
:10003000A513400000000000A5134000A5134000D8
:10004000A5134000A5134000451B4000A513400028
:10005000A5134000A5134000A5134000A5134000C0
:10006000A513400000000000350B40004D0B400080
:10007000650B4000A5134000A5134000A5134000E8
:100080007D0B4000950B4000A5134000A5134000D8
:10009000A5134000A5134000A5134000A513400080
:1000A000A5134000A5134000A5134000A513400070
:1000B000A5134000A5134000A5134000A513400060
:1000C000A5134000A5134000A5134000A513400050
:1000D00000000000A513400000000000A513400030
:1000E000A5134000A5134000A5134000A513400030
:1000F000A5134000A5134000A5134000A513400020
:10010000A5134000A5134000A5134000A51340000F
:10011000A5134000000000000000000000000000E7
:10012000A5134000A5134000A5134000A5134000EF
:10013000A513400000000000A5134000A5134000D7
:1001400010B5054C237833B9044B13B10448AFF311
:1001500000800123237010BD5408402000000000DF
:10016000743340000C4B43B10C480D4910B5AFF34C
:1001700000800C48036823B910BD0A48036833B9EE
:100180007047094B002BF7D0BDE810401847064BCD
:10019000002BF5D0184700BF00000000743340006A
:1001A00058084020743340000000000080B582B041
:1001B00000AF78607B68072B31D801A252F823F09A
:1001C0001D024000E1014000E9014000F101400052
:1001D000F901400001024000090240001302400002
:1001E0000020114B98471AE001200F4B984716E06A
:1001F00000200E4B984712E010200C4B98470EE061
:1002000020200A4B98470AE03E210020084B9847DF
:1002100005E03E210120064B984700E000BF00BFEB
:100220000837BD4680BD00BFAD0C4000190D400031
:10023000890D400080B582B000AF78607B68072BE5
:1002400026D801A252F823F0690240006D02400056
:100250006D0240007F0240007F0240007F024000AC
:100260007F0240007F024000012312E00B4B9847C1
:100270000346002B14BF01230023DBB209E0084B27
:1002800098470346002B14BF01230023DBB200E094
:10029000002318460837BD4680BD00BFE50C40006E
:1002A000010E400080B483B000AF78607B68072BFC
:1002B00025D801A252F823F0D9024000DF02400005
:1002C000E5024000EB024000EF024000F302400074
:1002D000F7024000FB0240004FF4FA4310E04FF4F5
:1002E00000430DE04FF400430AE0084B08E0084BE0
:1002F00006E0084B04E0074B02E0064B00E0002359
:1003000018460C37BD465DF8047B704700093D0078
:1003100000127A00001BB70080B582B000AF034620
:10032000FB7100BFFB791846054B9847034683F0E5
:100330000103DBB2002BF5D100BF0837BD4680BDFD
:100340003502400080B586B000AFF8607A603B604F
:100350000B46FB727B68002B07D13B68002B04D156
:10036000FB684FF470021A6019E0FB7A18460E4BD6
:10037000984702467B68B2FBF3F37B617B693A687E
:1003800002FB03F37B613B68013B1A04074B1340FC
:100390007A68D2B2134343F47C52FB681A6000BF00
:1003A0001837BD4680BD00BFA50240000000FF0712
:1003B00080B582B000AF786039603B68002B08D10F
:1003C000094B9847094A7B681B6843F000539362C6
:1003D00005E0064A7B681B6843F48033D36100BFA5
:1003E0000837BD4680BD00BF1D0E400000060E4010
:1003F00080B582B000AF78607B68002B03D1054BDD
:100400009847034602E0044B9847034618460837CE
:10041000BD4680BD390E4000550E400080B582B00B
:1004200000AF0346FB71FB79033B042B08D8FB7933
:100430001846064B9847FB791846054B984700E04D
:1004400000BF00BF0837BD4680BD00BFAD01400002
:100450001903400080B582B000AF786000BF7868B3
:10046000044B98470346002BF9D000231846083761
:10047000BD4680BDF103400080B500AF0620054BAE
:100480009847024613469B0013449A0013441846AB
:1004900080BD00BFA502400080B500AF024B984769
:1004A0000346184680BD00BF7904400090B583B074
:1004B00000AF1348134B98470620134B9847381D3D
:1004C000192301220621114CA0473B1D002118468B
:1004D0000F4B984700200F4B984702200E4B984730
:1004E00000200E4B98470E4B98470E4B98470346FB
:1004F0001846044B984700BF0C37BD4690BD00BF5F
:1005000000A3E111151540001D0440004503400003
:10051000B103400055044000AD0B4000290C4000E1
:10052000AD1340009904400080B586B000AFF8607C
:10053000B9607A6000237B61FB68002B12D04FF01A
:10054000FF3313E00B4B1B680B4A1268B968104667
:100550009847BB680133BB607B6901337B617B6873
:10056000013B7B607B68002BECDC7B69184618370D
:10057000BD4680BD280940203009402080B586B0A6
:1005800000AFF860B9607A6000237B61FB68012BE3
:100590001ED0FB68022B1BD0FB68032B18D04FF03A
:1005A000FF3319E00E4B1A680E4B1868BB68591CD4
:1005B000B9601B78194690470346002B02DA4FF0CA
:1005C000FF3309E07B6901337B617B68013B7B6022
:1005D0007B68002BE6D17B6918461837BD4680BD85
:1005E0002C0940203009402080B485B000AFF8606D
:1005F000B9607A607B68002B03D0FB68BA685A66E2
:1006000002E0FB68BA681A6600BF1437BD465DF8A1
:10061000047B704780B483B000AF786039607B683A
:100620003A681A6300BF0C37BD465DF8047B70471B
:1006300080B483B000AF786039607B683A685A63F1
:1006400000BF0C37BD465DF8047B704780B487B0AF
:1006500000AFF860B9607A60FB687A685A64BB687A
:10066000B3F1C05F4AD0B3F1C05F08D8B3F1006FF7
:1006700016D0B3F1805F2CD0002B69D064E0B3F1C9
:10068000205F65D0B3F1205F03D8B3F1005F4AD09B
:100690005AE0B3F1405F5BD0B3F1605F58D053E0F4
:1006A000FB681B6F7B61FB681A6F7B68D9437B69B2
:1006B0000B401A40FB681A67FB685B6F7B61FB6845
:1006C0005A6F7B68D9437B690B401A40FB685A67B5
:1006D0003AE0FB681B6F7B617A687B691A43FB68B1
:1006E0001A67FB685B6F7B61FB685A6F7B68D94355
:1006F0007B690B401A40FB685A6725E0FB681B6F5B
:100700007B61FB681A6F7B68D9437B690B401A4099
:10071000FB681A67FB685B6F7B617A687B691A43C9
:10072000FB685A6710E0FB681B6F7B617A687B6926
:100730001A43FB681A67FB685B6F7B617A687B69A9
:100740001A43FB685A6700BFFB687A685A6000E08A
:1007500000BF1C37BD465DF8047B704780B584B090
:1007600000AFF860B9607A60B968F868194B9847CB
:100770007B6803F001031A46B968F868164B98477E
:100780007B6803F00A03002B03D0FB68BA681A6287
:1007900002E0FB68BA685A627B6803F00203002B30
:1007A00004D0FB68BA68C3F8802008E07B6803F0D7
:1007B0000803002B03D0FB68BA68C3F88420FB68E9
:1007C000BA685A61FB68BA681A6000BF1037BD4644
:1007D00080BD00BF95094000E905400080B584B0A8
:1007E00000AFF860B9607A603B60B968F868124B96
:1007F0009847BA69B968F868104B98473B68002B6E
:1008000003D0FB68BA681A6502E0FB68BA685A65EB
:100810007B68002B03D0FB68BA681A6302E0FB68B0
:10082000BA685A63FB68BA681A61FB68BA681A60EA
:1008300000BF1037BD4680BD95094000E905400066
:1008400090B587B002AFF860B9607A603B60BB6872
:10085000B3F1005F16D0B3F1005F09D8B3F1805F48
:1008600010D0B3F1C05F0DD0B3F1006F0AD03DE0FE
:10087000B3F1405F1AD0B3F1605F17D0B3F1205FDE
:100880000ED033E07A68B968F8681C4B98473B682B
:1008900003F001031A467968F868194B984727E076
:1008A0003A687968F868174B984721E0BB68B3F15C
:1008B000605F0CBF01230023DBB21A463B6803F0E4
:1008C0000403002B14BF01230023DBB219463B684D
:1008D00003F00103002B14BF01230023DBB20093BC
:1008E0000B467968F868084CA04701E0002300E057
:1008F000012318461437BD4690BD00BF4D06400089
:10090000E90540005D074000DD07400080B485B088
:1009100000AFF860B9607A607B6803F01003002BC9
:1009200020D0FB68BA68C3F8B0207B6803F02003CE
:10093000002B04D0FB68BA68C3F8D42003E0FB683E
:10094000BA68C3F8D0207B6803F04003002B04D0C2
:10095000FB68BA68C3F8C02008E0FB68BA68C3F84F
:10096000C42003E0FB68BA68C3F8B42000BF1437A2
:10097000BD465DF8047B704780B483B000AF7860FB
:1009800039607B683A681A6400BF0C37BD465DF871
:10099000047B704780B483B000AF786039607B68B7
:1009A0003A685A6400BF0C37BD465DF8047B704757
:1009B00080B483B000AF78607B68DB6C18460C377E
:1009C000BD465DF8047B704780B483B000AF7860AB
:1009D0007B689B6C18460C37BD465DF8047B7047FE
:1009E00080B584B000AF786039607868264B98474E
:1009F000F8607868254B98470246FB681340FB6017
:100A0000FB68002B3CD00023BB6034E0204ABB686D
:100A10001B0113441A683B689A4226D11C4ABB68E2
:100A20001B01134404331A68FB681340002B1CD0CD
:100A3000174ABB681B0113440C331B681449BA687E
:100A400012010A4410681249BA6812010A440432B9
:100A50001268114698470E4ABB681B0113440433C1
:100A60001B68DB43FA681340FB60BB680133BB6063
:100A7000BB68062B03D8FB68002BC7D100E000BF82
:100A800000BF1037BD4680BDB1094000C909400014
:100A90007008402080B586B000AFF860B9607A6019
:100AA0003B60214B1B68062B01D9012338E0002352
:100AB000FB7511E0FB7D1B011C4A13443B613B6944
:100AC0001A68BB689A4204D13B695A687B689A42AB
:100AD00008D0FB7D0133FB75FA7D134B1B689A42EE
:100AE000E8D900E000BF3B69BA681A603B697A68E0
:100AF0005A603B693A689A603B693A6ADA60FA7D03
:100B0000094B1B6801339A4204D1074B1B68013320
:100B1000054A13603A687968F868054B98470023DE
:100B200018461837BD4680BDE008402070084020B8
:100B30000D09400080B500AF0A210248024B9847DA
:100B400000BF80BD000E0E40E109400080B500AF3F
:100B50000B210248024B984700BF80BD00100E4099
:100B6000E109400080B500AF0C210248024B9847D4
:100B700000BF80BD00120E40E109400080B500AF0B
:100B800010210248024B984700BF80BD00140E4060
:100B9000E109400080B500AF11210248024B98479F
:100BA00000BF80BD00160E40E109400080B483B054
:100BB00000AF78607B68013B032B1AD801A252F882
:100BC00023F000BFD50B4000DB0B4000E30B4000DF
:100BD000EB0B400000237B600EE04FF480737B60E2
:100BE0000AE04FF440737B6006E04FF400737B60D3
:100BF00002E000237B6000BF0A490A4B1B6B23F411
:100C000040727B6813430B6300BF064B9B6E03F07F
:100C10000803002BF9D000BF0C37BD465DF8047BFC
:100C2000704700BF00060E4080B485B000AF78600A
:100C30001D491D4B1B6B23F070027B6813430B6334
:100C40004FF48053FB6007E0FB68002B01D10123C8
:100C500023E0FB68013BFB60134B9B6E03F0080332
:100C6000002BF1D0104A104B1B6B23F0030343F011
:100C7000020313634FF48053FB6007E0FB68002B13
:100C800001D1012309E0FB68013BFB60064B9B6E31
:100C900003F00803002BF1D0002318461437BD469B
:100CA0005DF8047B704700BF00060E4080B483B03F
:100CB00000AF78607B68012B05D10749064B9A6825
:100CC000064B13438B60044B054A1A6000BF0C3778
:100CD000BD465DF8047B704710180E40000010A55B
:100CE000080000A580B400AF094B5B6903F08003E6
:100CF000002B07D0074B9B6E03F08003002B01D025
:100D0000012300E000231846BD465DF8047B7047D0
:100D100010180E4000060E4080B483B000AF78601B
:100D20001549154B1A6A154B13430B6200BF124B42
:100D30009B6E03F40033002BF9D00F490E4B1A6A57
:100D40000F4B13407A68134343F45C130B6200BFEC
:100D5000094B9B6E03F40033002BF9D00649064B78
:100D60001A6A084B134043F45C130B6200BF0C3744
:100D7000BD465DF8047B704700060E400800370052
:100D80008FFFC8FFFFFFC8FE80B483B000AF78605C
:100D900039607B68002B08D01349134B1B6A134A38
:100DA0001A40134B13430B6218E00F490E4B1A6A9B
:100DB000104B13403A68120292B21A430E4B13437F
:100DC0000B6200BF084B9B6E03F00103002BF9D0B0
:100DD0000549054B1A6A094B13430B6200BF0C37D8
:100DE000BD465DF8047B704700060E40FCFFC8FE60
:100DF00002003701FCFFC8FF010037000000370187
:100E000080B400AF044B9B6E03F480331846BD469C
:100E10005DF8047B704700BF00060E4080B400AF51
:100E2000044B4FF000529A6200BFBD465DF8047B50
:100E3000704700BF00060E4080B400AF044B9B6EAD
:100E400003F002031846BD465DF8047B704700BFFF
:100E500000060E4080B400AF044B9B6E03F04003CD
:100E60001846BD465DF8047B704700BF00060E4083
:100E700080B483B000AF78607B683F2B01D9012339
:100E80002FE07B681F2B13D8194B9A6901217B68CF
:100E900001FA03F31A4001217B6801FA03F39A4235
:100EA0001ED0134A01217B6801FA03F3136117E096
:100EB0007B68203B7B600E4BD3F8082101217B68C7
:100EC00001FA03F31A4001217B6801FA03F39A4205
:100ED00006D0074A01217B6801FA03F3C2F800310A
:100EE000002318460C37BD465DF8047B704700BFF1
:100EF00000060E4080B483B000AF78607B689B69C9
:100F000018460C37BD465DF8047B704780B483B04B
:100F100000AF786039607B683A68DA6100BF0C37EF
:100F2000BD465DF8047B704780B485B000AF786043
:100F300039600023FB607B68AC221A603B681A684A
:100F40003B685B68B2FBF3F31B09FB60FB68002B9B
:100F500003D0FB68B3F5803F01D301230AE07B682F
:100F6000FA681A623B689A687B685A607B6850220C
:100F70001A60002318461437BD465DF8047B70479D
:100F800080B483B000AF78600B46FB707B685B6910
:100F900003F00203002B01D1012303E0FA787B6800
:100FA000DA61002318460C37BD465DF8047B7047B4
:100FB00080B483B000AF786039607B685B6903F010
:100FC0000103002B01D1012305E07B689B69DAB2A4
:100FD0003B681A70002318460C37BD465DF8047B49
:100FE000704780B489B000AFF860B9607A60BB68C0
:100FF0001A017B689A4202D81023FB6101E00823A2
:10100000FB617B68DA00FB69B96801FB03F35B08ED
:101010001A44FB69B96801FB03F3B2FBF3F3BB614C
:10102000BB69DB087B61BB6903F007033B617B693C
:10103000002B03D07B69B3F5803F01D301230FE080
:10104000FB69082B05D1FB685B6843F40022FB6851
:101050005A603B691A047B691A43FB681A620023D1
:1010600018462437BD465DF8047B704780B582B0D2
:1010700000AF786078680D4B98477B6800225A6013
:101080007B6800225A627B6800229A627868084B6B
:1010900098477868074B98477868074B984778686F
:1010A000064B984700BF0837BD4680BD4D12400033
:1010B0005F11400093114000AD114000C911400084
:1010C00080B584B000AFF860B9607A60F8681A4BF8
:1010D00098471A4B00221A60BB68002B09D0BB68E6
:1010E0001B687A681946F868154B98470346002B29
:1010F00001D001231BE0BB685A68BB689B681A4398
:10110000BB681B691A43BB68DB681A430B4B1B683F
:1011100013430A4A1360094B1B68084A1360FB68B3
:101120005A68064B1B681A43FB685A60002318462E
:101130001037BD4680BD00BF6D104000E408402060
:10114000E30F400080B483B000AF78607B6840223A
:101150001A6000BF0C37BD465DF8047B704780B451
:1011600083B000AF78607B6888221A6000BF0C37BC
:10117000BD465DF8047B704780B483B000AF7860F3
:101180007B6810221A6000BF0C37BD465DF8047BF7
:10119000704780B483B000AF78607B6824221A6007
:1011A00000BF0C37BD465DF8047B704780B483B048
:1011B00000AF78607B684FF480721A6000BF0C3714
:1011C000BD465DF8047B704780B483B000AF7860A3
:1011D0007B684FF400221A6000BF0C37BD465DF8F3
:1011E000047B704780B483B000AF786039607B685F
:1011F0005B6903F00203002B01D1012305E03B688A
:10120000C3F308027B68DA61002318460C37BD4639
:101210005DF8047B704780B483B000AF78603960BC
:101220007B685B6903F00103002B01D1012306E019
:101230007B689B69C3F308023B681A600023184669
:101240000C37BD465DF8047B7047000080B483B066
:1012500000AF78607B68044AC3F8E42000BF0C3715
:10126000BD465DF8047B70470041535580B483B0A0
:1012700000AFEFF310837B607B68002B0CBF012372
:101280000023DBB23B6072B6BFF35F8F044B0022DA
:101290001A703B6818460C37BD465DF8047B7047F2
:1012A0000A00402080B483B000AF78607B68002BD8
:1012B00014BF01230023DBB218460C37BD465DF88E
:1012C000047B704780B582B000AF78607868074BC8
:1012D00098470346002B05D0054B01221A70BFF337
:1012E0005F8F62B600BF0837BD4680BDA5124000C3
:1012F0000A00402080B584B000AF1E4BFB601E4B3F
:10130000BB60FA68BB689A420CD007E0BB681A1D44
:10131000BA60FA68111DF96012681A60BB68174A52
:101320009342F3D3164BBB6004E0BB681A1DBA604E
:1013300000221A60BB68134A9342F6D3124BFB603B
:10134000124AFB6823F07F039360114B9847786043
:10135000104A104B1B6843F470031360BFF34F8FA8
:10136000BFF36F8F78680C4B98470C4B98470C4B2A
:101370009847FEE7743340000000402054084020A6
:10138000540840205C0940200000400000ED00E0CF
:101390006D12400088ED00E0C51240003D22400083
:1013A000551D400080B400AFFEE7000080B400AFE0
:1013B000524B1B6B03F00303012B14D0012B02D300
:1013C000022B38D07AE04E4B5B6903F08003002B90
:1013D00004D04C4B4FF400421A606FE0494B4FF47D
:1013E000FA421A606AE0454B1B6A03F08073002BD7
:1013F00003D0444B444A1A6060E0424B434A1A60AF
:101400003E4B1B6A03F07003102B04D0202B08D036
:10141000002B0ED00EE03B4B1B685B00394A13607B
:1014200008E0384B1A6813465B001344354A1360D2
:1014300000E000BF42E0314B1B6A03F08073002BD9
:1014400003D0304B304A1A601CE02E4B2F4A1A60F2
:101450002A4B1B6A03F07003102B04D0202B08D0FA
:10146000002B0ED00EE0274B1B685B00254A136053
:1014700008E0244B1A6813465B001344214A1360AA
:1014800000E000BF1D4B1B6B03F00303022B14D1C4
:101490001A4B9B6A1B0CC3F30A030133194A1268E7
:1014A00002FB03F3174A1360144B9B6ADBB2154A25
:1014B0001268B2FBF3F3134A136000BF0F4B1B6BB0
:1014C00003F07003702B08D10E4B1B68104AA2FB6F
:1014D00003235B080B4A13600AE0084B1B6B1B09D4
:1014E00003F00703074A126822FA03F3054A136060
:1014F00000BFBD465DF8047B704700BF00060E408C
:1015000010180E400C004020001BB70000093D00E1
:10151000ABAAAAAA80B483B000AF78607B68194AEE
:10152000934204D8184B4FF080621A6023E07B6826
:10153000164A934203D8144B154A1A601BE07B6885
:10154000144A934203D8104B134A1A6013E07B6885
:10155000124A934203D80C4B114A1A600BE07B6885
:10156000104A934204D8084B4FF004221A6002E05C
:10157000054B0D4A1A6000BF0C37BD465DF8047B71
:10158000704700BFFF2C3101000C0E40FF59620272
:1015900000010004FF86930300020004FFB3C404AB
:1015A00000030004FFE0F5050005000480B485B0E9
:1015B00000AF7860104BFB60104B1B68002B02D112
:1015C0000E4B0F4A1A600D4B1B68BB60BA687B68F4
:1015D0001A44FB689A4202DD4FF0FF3306E0074BE6
:1015E0001A687B681344054A1360BB6818461437B1
:1015F000BD465DF8047B7047FCFF4520E8084020AD
:10160000602B402080B483B000AF78604FF0FF3390
:1016100018460C37BD465DF8047B704780B483B034
:1016200000AF786039603B684FF400525A60002385
:1016300018460C37BD465DF8047B704780B485B012
:1016400000AFF860B9607A60002318461437BD46D1
:101650005DF8047B7047000080B483B000AF0346A0
:10166000FB71094997F907305B09FA7902F01F020B
:10167000012000FA02F241F8232000BF0C37BD46DA
:101680005DF8047B704700BF00E100E080B483B0E8
:1016900000AF78607B68072B25D801A252F823F0B1
:1016A000C1164000C7164000CD164000D3164000BA
:1016B000D7164000DB164000DF164000E31640005E
:1016C0004FF4FA4310E04FF400430DE04FF40043B1
:1016D0000AE0084B08E0084B06E0084B04E0074B23
:1016E00002E0064B00E0002318460C37BD465DF8CB
:1016F000047B704700093D0000127A00001BB70010
:1017000080B500AF0620054B9847024613469B0064
:1017100013449A001344184680BD00BF8D16400044
:1017200080B500AF024B98470346184680BD00BF06
:101730000117400080B500AF024B984703465B0895
:10174000184680BD0117400080B582B000AF7860B8
:101750007868034B984700BF0837BD4680BD00BF7F
:10176000710E400080B58CB000AF78603960494B95
:10177000984703467B623B681B68BB623B689B687B
:10178000FB623B681B68FB603B685B683B613B68D6
:101790009B687B613B68DB68BB610023FB617B6806
:1017A0003D4A934208D107203C4B984707F1240358
:1017B000194678683A4B98477B683A4A934208D171
:1017C0000820364B984707F1240319467868344BB4
:1017D00098477B68344A934208D12C202F4B984776
:1017E00007F12403194678682D4B98477B682F4AE8
:1017F000934208D12D20294B984707F1240319461D
:101800007868274B98477B68294A934211D10D206D
:10181000224B98471F4B9847024607F10C03194685
:101820007868244B98477868234B98477868234B0F
:1018300098477B68224A934211D10E20174B984754
:10184000144B9847024607F10C0319467868194B68
:1018500098477868184B98477868184B98477B6882
:10186000184A934211D10F200C4B9847094B9847C7
:10187000024607F10C03194678680E4B98477868C2
:101880000D4B984778680D4B984700BF3037BD46E1
:1018900080BD00BF3517400000080E4049174000CA
:1018A000290F4000000A0E40001A0E40001C0E4096
:1018B00000400240C1104000451140007911400035
:1018C0000080024000C0024080B582B000AF786066
:1018D0000B46FB707B68364A93420AD100BFFB7807
:1018E00019467868334B98470346002BF7D10123FC
:1018F0005AE07B68304A93420AD100BFFB78194610
:1019000078682C4B98470346002BF7D101234BE016
:101910007B682A4A93420AD100BFFB78194678684F
:10192000244B98470346002BF7D101233CE07B680A
:10193000234A93420AD100BFFB78194678681D4BB1
:1019400098470346002BF7D101232DE07B681D4A01
:1019500093420AD100BFFB78194678681A4B984722
:101960000346002BF7D101231EE07B68174A934200
:101970000AD100BFFB7819467868134B9847034695
:10198000002BF7D101230FE07B68114A93420AD163
:1019900000BFFB78194678680B4B98470346002B2D
:1019A000F7D1012300E0002318460837BD4680BD6B
:1019B00000080E40810F4000000A0E40001A0E4041
:1019C000001C0E4000400240E51140000080024033
:1019D00000C0024080B584B000AF78603960002359
:1019E000FB607B68344A934207D100BF396878684E
:1019F000324B98470346002BF8D17B68304A93421C
:101A000007D100BF396878682C4B98470346002BF4
:101A1000F8D17B682B4A934207D100BF39687868B8
:101A2000264B98470346002BF8D17B68264A934201
:101A300007D100BF39687868204B98470346002BD0
:101A4000F8D17B68214A93420DD100BF07F10C0306
:101A5000194678681E4B98470346002BF6D1FB6861
:101A6000DAB23B681A707B681A4A93420DD100BF04
:101A700007F10C0319467868154B98470346002B6D
:101A8000F6D1FB68DAB23B681A707B68124A93425F
:101A90000DD100BF07F10C03194678680C4B98472D
:101AA0000346002BF6D1FB68DAB23B681A7000BF20
:101AB0001037BD4680BD00BF00080E40B10F40008A
:101AC000000A0E40001A0E40001C0E40004002406A
:101AD000171240000080024000C0024080B582B072
:101AE00000AF786039600F4A7B6813600E4B0F4A75
:101AF0001A600F4B0F4A1A60396878680E4B984786
:101B00000E4B1B689B68002118460D4B98470B4BEA
:101B10001B685B6800211846094B984700BF0837CF
:101B2000BD4680BD300940202C094020C918400026
:101B300028094020D51940006517400010004020BA
:101B40002923400080B582B000AF1B481B4B98474B
:101B500078607B6803F00403002B03D0042116484F
:101B6000174B98477B6803F00203002B06D0022135
:101B70001148134B9847134B00221A704FF48011F1
:101B80001148124B98474FF480010F480F4B98476C
:101B9000012109480A4B984708210748084B9847F4
:101BA00010210548064B984720210348044B9847CD
:101BB00000BF0837BD4680BD60180E40F50E4000DE
:101BC0000D0F4000F008402000140E403106400088
:101BD00080B400AF044B1B680133034A136000BF9D
:101BE000BD465DF8047B7047EC08402080B400AF30
:101BF000034B01221A7000BFBD465DF8047B70479D
:101C0000F008402090B583B002AF304B9847304B7E
:101C10004FF400425A602F482F4B984710202E4B0C
:101C200098470A202C4B984700224FF400612B481C
:101C30002B4B984701224FF400610A20294B98470B
:101C400000230093002300224FF480012148264CFA
:101C5000A04700230093002300224FF480111D4869
:101C6000214CA04700234FF480724FF040511F4891
:101C70001F4CA0471F4B009350234FF400620A21D2
:101C800016481D4CA0474FF4006114481B4B984761
:101C90000A201B4B9847002310224FF020510F4879
:101CA000134CA047174B0093502310220A210B48D6
:101CB000114CA04710210948104B98470A20104B9F
:101CC000984700BF0437BD4690BD00BFAD0440003B
:101CD00050180E4000140E40710E4000000E0E40D1
:101CE0005D074000E9054000DD07400000120E409E
:101CF00041084000ED1B4000950A40007909400072
:101D000059164000D11B400090B585B000AF0C4A79
:101D10000B4BD3F8143143F01003C2F81431094BC4
:101D20003C460FCB84E80F000E20074B98473B46FC
:101D300019460648064B984700BF1437BD4690BD6C
:101D400000800840343340004917400000800240C2
:101D5000DD1A40002DE9F04F87B000AF694B98477E
:101D6000694B98474FF480116848694B98474FF486
:101D700080016648664B9847664B1B78DBB2002BA8
:101D8000FAD0654B1B680A2B6ED84FF480115F4860
:101D90005F4B98474FF480015C48604B9847604B1D
:101DA0009847034619464FF000020B461446A00020
:101DB0007861786940EA937078619B003B61D7E96C
:101DC00004345B1844EB0204DB1844EB04041946AA
:101DD000224641F22B734FF00004CD1842EB04066B
:101DE000284631464F4C41F22C724FF00003A04779
:101DF00003460C4618464C4B98474FF48001434825
:101E0000434B98474FF480114048414B9847444B0F
:101E10009847034619464FF000020B4614464FEA16
:101E2000840949EA93794FEA830843464C465B1894
:101E300044EB0204DB1844EB04041946224641F249
:101E40002B734FF00004CD1842EB040628463146B0
:101E5000344C41F22C724FF00003A04703460C466D
:101E60001846314B984787E74FF480012748284BA5
:101E700098474FF480112548254B9847284B9847A1
:101E8000034619464FF000020B4614464FEA441B26
:101E90004BEAD36B4FEA431A53465C465B1A64EB3A
:101EA0000204A000F860F86840EA9370F8609B00B4
:101EB000BB60D7E902345B1844EB0204E2007A60AD
:101EC0007A6842EA53727A60DB003B60D7E90034FB
:101ED0001946224641F22B734FF00004CD1842EB15
:101EE0000406284631460F4C41F22C724FF0000395
:101EF000A04703460C4618460B4B9847064B00225A
:101F00001A6039E7051C4000091D400000140E400E
:101F100031064000F0084020EC0840201506400043
:101F2000211740002D1F40000100402053B94AB93D
:101F3000002908BF00281CBF4FF0FF314FF0FF30D1
:101F400000F07AB9ADF1080C6DE904CE00F006F8A6
:101F5000DDF804E0DDE9022304B070472DE9F04725
:101F60008C460D460446089E002B51D18A421746E6
:101F70006DD9B2FA82FEBEF1000F0BD0CEF1200C6B
:101F800001FA0EF520FA0CFC02FA0EF74CEA050CE9
:101F900000FA0EF44FEA174A250CBCFBFAF81FFAB8
:101FA00087F90AFB18CC45EA0C4508FB09F3AB425C
:101FB0000AD9ED1908F1FF3280F02381AB4240F2DB
:101FC0002081A8F102083D44ED1AA4B2B5FBFAF055
:101FD0000AFB105544EA054400FB09F9A14509D95B
:101FE000E41900F1FF3380F00A81A14540F2078136
:101FF00002383C44A4EB090440EA08400021002ECA
:1020000061D024FA0EF4002334607360BDE8F087D9
:102010008B4207D9002E54D0002186E821000846C3
:10202000BDE8F087B3FA83F1002940F08E80AB421F
:1020300002D3824200F2FA80841A65EB0305012084
:10204000AC46002E3FD086E81010BDE8F08712B9EC
:102050000127B7FBF2F7B7FA87FEBEF1000F34D1C4
:10206000EB1B3A0C1FFA87FC0121B3FBF2F8250C9D
:1020700002FB183345EA03450CFB08F3AB4207D9D2
:10208000ED1908F1FF3002D2AB4200F2D180804658
:10209000ED1AA3B2B5FBF2F002FB105543EA05447A
:1020A0000CFB00FCA44507D9E41900F1FF3302D270
:1020B000A44500F2B8801846A4EB0C0440EA08409E
:1020C0009DE731463046BDE8F087CEF1200405FAA1
:1020D0000EF307FA0EF720FA04F83A0C25FA04F486
:1020E00048EA0308B4FBF2F14FEA184502FB114439
:1020F0001FFA87FC45EA044501FB0CF3AB4200FAEA
:102100000EF409D9ED1901F1FF3080F08A80AB425D
:1021100040F2878002393D44EB1A1FFA88F5B3FB81
:10212000F2F002FB103345EA034500FB0CF3AB422F
:1021300007D9ED1900F1FF386FD2AB426DD90238E3
:102140003D44EB1A40EA01418FE7C1F1200722FA32
:1021500007F88B4005FA01F448EA030320FA07FE6A
:102160004FEA134CFD404EEA040EB5FBFCF94FEA72
:102170001E440CFB19551FFA83F844EA054509FB78
:1021800008F4AC4202FA01F200FA01FA08D9ED189B
:1021900009F1FF3043D2AC4241D9A9F102091D44F3
:1021A0002D1B1FFA8EFEB5FBFCF00CFB10554EEA02
:1021B000054400FB08F8A04507D9E41800F1FF35F5
:1021C00029D2A04527D902381C4440EA0940A4EB93
:1021D0000804A0FB02894C45C6464D4615D312D0D3
:1021E00056B1BAEB0E0364EB050404FA07F7CB40D3
:1021F0001F43CC40376074600021BDE8F08718466B
:10220000F8E69046E0E6C245EAD2B8EB020E69EB8A
:1022100003050138E4E72846D7E7404691E78146C1
:10222000BEE7014678E702383C4445E7084608E740
:10223000A8F102083D442BE7704700BF70B50F4E70
:102240000F4D761BB61018BF002405D0013455F889
:10225000043B9847A642F9D10A4E0B4D761B01F07C
:1022600073F8B61018BF002406D0013455F8043BAB
:102270009847A642F9D170BD70BD00BF54334000ED
:10228000543340005C3340005433400070B4860740
:1022900046D0541E002A41D0CAB2034602E014F1CF
:1022A000FF343BD303F8012B9D07F8D1032C2ED923
:1022B000CDB245EA05250F2C45EA054519D903F1AC
:1022C00010022646103E0F2E42F8105C42F80C5CBD
:1022D00042F8085C42F8045C02F11002F2D8A4F162
:1022E000100222F00F0204F00F041032032C1344EA
:1022F0000DD91E462246043A032A46F8045BFAD852
:10230000221F22F003020432134404F003042CB110
:10231000C9B21C4403F8011B9C42FBD170BC70473E
:1023200014460346C2E700BF00290CBF0222002268
:102330004FF4806300F000B82DE9F043614C25684C
:1023400083B004460F4690461E4615B1AB6B002B7A
:1023500064D0B8F1020F06D0B8F1010F00F29F80EF
:10236000002EC0F29C80636ED80734D521462846E3
:1023700000F05AF9216B41B104F14003994202D0B7
:10238000284600F04BFA00232363B4F90C300022F6
:10239000A26162601A063AD423F44A6323F003036D
:1023A000B8F1020FA3811DD001AB6A462146284631
:1023B00000F04CFBA3891843A081002E32D1009E6F
:1023C000304600F071FB074600286BD0A38943F02C
:1023D0008003A38128E0A3899905C7D4A06D00F0EC
:1023E00031FBC3E70025616E002604F1430243F090
:1023F00002030120A660CE07A381226022616061F2
:1024000001D498053ED5284603B0BDE8F083216984
:10241000284600F003FAB4F90C30BDE7284600F076
:102420005BF996E7002FCBD0AB6B002B33D0009B32
:10243000B4F90C2027609E421CBF42F40062A281C6
:10244000B8F1010F04BF42F00102A28192B212F072
:102450000803276166610ED0D1071AD5656E7642F2
:10246000002315F00105A661A36009D000252846C8
:1024700003B0BDE8F083A360656E15F00105F5D1EA
:102480009305C0D4A06D00F0DFFA284603B0BDE884
:10249000F083A660F0E7284600F01EF9C7E74FF08A
:1024A000FF35B0E7DDF80090B14504D0484600F0B4
:1024B000FBFA074620B9B4F90C304FF0FF3592E72C
:1024C0004E4683E710004020024B13B1024800F053
:1024D00005B870470000000049274000002301466E
:1024E0001A46184600F010BEB1F90C309AB22DE928
:1024F000F0410D46110780463AD46A6843F4006300
:10250000002AAB816FDDAC6A002C49D000229BB25F
:10251000D8F80060C8F8002013F4805267D02A6D04
:102520005F0705D569682B6B521A0BB1EB6BD21A9A
:102530000023E9694046A047441C3CD0B5F90C3063
:102540002A692A6023F400630022AB81DB046A60FD
:1025500047D4296BC8F8006011B305F140039942D4
:1025600002D0404600F05AF900202863BDE8F0810F
:102570002E69AEB12C682E6091070CBF6B690023E9
:10258000A41BAB600AE0234632466F6AE969404605
:10259000B8470028A4EB0004064404DD002CF2DC5C
:1025A0000020BDE8F081AB8943F04003AB814FF0E0
:1025B000FF30BDE8F081D8F800401D2CF3D8194B4E
:1025C000E340DB4313F00103EDD1B5F90C206B6060
:1025D00022F400632969AB81DA042960B9D5002CA3
:1025E000B7D12865B5E7EA6B002A8CDCD8E7012370
:1025F000E9694046A047431C024602D0AB89AC6A59
:102600008EE7D8F80030002BF8D01D2B01D0162B08
:1026100002D1C8F80060C3E7AB8943F04003AB8147
:10262000BDE8F0810100402038B50D46044608B1F0
:10263000836BBBB1B5F90C0088B16B6EDB0701D4BD
:10264000810517D520462946FFF74EFF6B6EDA0746
:10265000044602D4AB899B0507D5204638BD044605
:10266000204638BD00F038F8E4E7A86D00F0ECF93A
:10267000204638BDA86D00F0E5F9E3E7014900F018
:10268000B3B900BFF131400010B500230446818189
:10269000C281036043608360436603614361836179
:1026A000194608225C30FFF7F1FD07480749084A40
:1026B000084B2062E4616162A262E36204F15800A7
:1026C000BDE8104000F0BAB9553040007930400004
:1026D000B5304000D530400010B50446124800F037
:1026E000B1F9A26BD2B904F53B731048C4F8E832D3
:1026F0000321C4F8E022E063C4F8E4126068042116
:10270000FFF7C2FF01220921A068FFF7BDFF0222E7
:102710001221E068FFF7B8FF0123A3630248BDE878
:10272000104000F091B900BF400940207D264000D4
:10273000014800F087B900BF54094020014800F06B
:1027400083B900BF5409402038B50A4C0A4D641BB8
:10275000A4100AD004F18043013B05EB8305013C42
:1027600055F804399847002CF9D1BDE8384000F0FD
:10277000F5BD00BF6C33400068334000F8B5244F0E
:102780000C46064600F048FCBB685D68C4F57E61F7
:102790000F3125F00305294421F47F6121F00F0159
:1027A000A1F58054B4F5805F07DB0021304600F0CE
:1027B0003FFCBB682B44984204D0304600F032FC0A
:1027C0000020F8BD6142304600F032FC01300DD0EF
:1027D000104BBA6819682D1B45F001053046091BDE
:1027E0005560196000F01EFC0120F8BD0021304644
:1027F00000F01EFCBA68831A0F2BDEDD064C05497B
:10280000246843F00103001B53600860D5E700BF54
:1028100044044020F40840204C084020002944D0C3
:102820002DE9F0410D46804600F0F6FB55F8047C9A
:10283000694927F00103A5F10804E2188E68506881
:10284000B24220F003005ED0FE0750600BD455F872
:10285000087CE41B01F1080EA56875453B446DD06A
:10286000E768EF60BD6015186D68ED073ED543F071
:1028700001026260E350B3F5007F17D2DB08581CF9
:102880009A104D6851F83070A7600123934001EB16
:10289000C0022B43083AE2604B6041F83040FC60D4
:1028A0004046BDE8F04100F0BDBB70475A0A042A1B
:1028B00052D89A0902F13907FF0002F13805C81908
:1028C000CA59083890424FD0516821F003018B4219
:1028D00032D292689042F7D1C368A060E3609C60F6
:1028E000C4604046BDE8F04100F09CBB95683B4F9A
:1028F000BD42034440D0D068E86043F001028560E7
:102900006260E350B7E7FF07034407D455F8082C8B
:10291000A41A1344A068E268C2609060304A12684A
:1029200043F00100934260608C60B9D32D4B404668
:102930001968FFF723FFB3E71046CDE71118496880
:10294000C90744D49168D268CA60034443F00100C7
:1029500091606060E350A3E7142A16D802F15C0787
:10296000FF0002F15B05AAE7AA1001234D6893401E
:102970002B434B600346B0E743F001024C610C610E
:10298000E560A5606260E3508AE7542A06D81A0B16
:1029900002F16F07FF0002F16E0590E7B2F5AA7F22
:1029A00006D8DA0B02F17807FF0002F1770586E717
:1029B00040F25450824206D89A0C02F17D07FF0083
:1029C00002F17C057BE74FF47E777E2577E743F0C5
:1029D00001016160136063E7440440204C0440201F
:1029E00050084020240940202DE9F84310F538779D
:1029F0001FD0884606464FF000097D68BC68013D3F
:102A000011D4A389012B05F1FF3508D9B4F90E3093
:102A100001332146304602D0C04749EA00096B1C09
:102A200004F16804EDD13F68002FE6D14846BDE8C7
:102A3000F883B9464846BDE8F88300BF704700BF39
:102A4000704700BF704700BF704700BF70B50C46AD
:102A5000B1F90E10002990B015461E4614DB01AAEC
:102A600000F028FC00280FDB029A02F47042A2F565
:102A70000052B2FA82F252094FF480634FF40060C0
:102A800032602B6010B070BDA289002312F080006C
:102A9000336004D0402218462A6010B070BD4FF455
:102AA00080632B6010B070BD024B0146186800F0C7
:102AB00003B800BF100040202DE9F04F01F10B06D4
:102AC000162E83B0054640F29E8036F0070600F1D0
:102AD000BD80B14200F2BA8000F09EFAB6F5FC7FEC
:102AE000C0F09382730A00F0B880042B00F2798161
:102AF000B30903F1390003F1380EC300BF4F3B4463
:102B0000A3F108015C68A14206D10CE0002A80F222
:102B1000AA80E468A14206D0636823F003039A1BED
:102B20000F2AF3DD70463C69DFF8E4E2744500F0FB
:102B3000AB81636823F003039A1B0F2A00F3908193
:102B4000002AC7F814E0C7F810E080F29D80B3F5C2
:102B5000007F80F06181DB0803F1010C99107A6835
:102B600057F83C80C4F8088001238B4007EBCC0168
:102B700013430839E1607B6047F83C40C8F80C40DB
:102B80008210012494409C4200F28B801C4206D1AA
:102B900020F0030064001C4200F10400FAD007EBAF
:102BA000C009CC468046DCF80C309C4507D16DE16D
:102BB000002A80F27B81DB689C4500F067815968C0
:102BC00021F003018A1B0F2AF2DDD3F80CC0D3F8E1
:102BD000088000939C19284646F0010642F0010542
:102BE0005E60C8F80CC0CCF808807C613C61C4F819
:102BF0000CE0C4F808E065605A5000F013FA009B3E
:102C000003F108041EE0102920D800F005FA102670
:102C100018230220794F3B44A3F108025C689442D8
:102C200000F03D816368E168A66823F00303234454
:102C300028465A68F16042F001028E605A6000F046
:102C4000F1F90834204603B0BDE8F08F00240C23CE
:102C500020462B6003B0BDE8F08F40204FF4007396
:102C60004FF03F0E4AE72344E1685A68A66842F0F5
:102C70000102F16028468E605A6000F0D3F90834F2
:102C8000204603B0BDE8F08F234428465A6842F03E
:102C900001025A6000F0C6F90834204603B0BDE8CE
:102CA000F08FBC68636823F00308B04504D3A8EB39
:102CB00006030F2B00F38580DFF85891504BD9F8AD
:102CC00000201B680132334404EB080A00F05581F0
:102CD00003F580530F3323F47F6B2BF00F0B594612
:102CE000284600F0A5F9411C024600F0FC80824510
:102CF00000F2F780434B19685944196000F04D8188
:102D0000D9F8000001301BBFA2EB0A0A5144C9F8F0
:102D10000020196012F0070100F01581C1F10800D0
:102D2000C1F580510244083102EB0B09C9F30B09CC
:102D3000A1EB0909494628460193009200F078F971
:102D4000431C9DE80C0000F04381801A484440F089
:102D500001001968BA604944BC425060196017D03C
:102D6000B8F10F0F40F2FB806068A8F10C0222F06E
:102D7000070204EB020E00F001004FF0050C1043B7
:102D80000F2A6060CEF804C0CEF808C000F21781A8
:102D90001D4BBC681A68914288BF19601B4B1A68AA
:102DA0009142626888BF196022F003029642A2EB4A
:102DB000060301D80F2B04DC284600F033F9002469
:102DC00040E7A21943F0010346F001066660284679
:102DD000BA60536000F026F90834204603B0BDE81D
:102DE000F08F142B71D9542B00F2A380330B03F115
:102DF0006F0003F16E0EC30080E600BF4404402064
:102E000024094020F40840201C09402020094020CB
:102E10004C0440204C0840205A0A042A5BD9142A4A
:102E200000F2AE8002F15C01C9005B3207EB010CDD
:102E30007958ACF1080C8C4500F088804A6822F083
:102E40000302934273D289688C45F7D1DCF80C20D9
:102E50007B68E260C4F808C09460CCF80C408FE650
:102E6000A11946F0010C42F00106C4F804C028463E
:102E700079613961C1F80CE0C1F808E04E60E250B8
:102E800000F0D0F80834DDE67B6879E608F1010847
:102E900018F0030F0CF1080C7FF485AE2DE0DC6810
:102EA000A34208BF02303FF43EAEBBE619441C46C5
:102EB0004A68DB6854F8086F42F001024A6028460D
:102EC000F3609E6000F0AEF8BCE603F15C0003F135
:102ED0005B0EC30012E69A0902F13901C9003832CB
:102EE000A4E7BC4254D0BC68626822F003025DE7EC
:102EF00059F80839994540F0868010F0030F00F129
:102F0000FF30F5D17B6823EA04037B6064009C42B8
:102F10003FF6C7AE002C3FF4C4AE1C4240467FF4DF
:102F20003EAE64001C4200F10400FAD037E68C4645
:102F30008CE7B3F5AA7F15D8F30B03F1780003F102
:102F4000770EC300DAE54FF48051EDE67B6892100E
:102F5000012101FA02F213437B60624679E7012303
:102F6000536029E740F25452934222D8B30C03F144
:102F70007D0003F17C0EC300C0E503F1100BAEE64B
:102F8000542A29D81A0B02F16F01C9006E324DE79D
:102F9000204B196859441960B2E6CAF30B000028A7
:102FA0007FF4AEAE08EB0B03BA6843F00103536045
:102FB000EEE67F204FF47E734FF07E0E9EE504F127
:102FC000080128460093FFF729FC009B1968DFE6FB
:102FD00001204FF00009BCE6B2F5AA7F05D8DA0B54
:102FE00002F17801C900773220E740F254518A4259
:102FF00005D89A0C02F17D01C9007C3216E74FF426
:103000007E717E2212E77B6880E7F00806F10803F4
:1030100000E600BFF40840200148FFF713BD00BFE1
:10302000440940200148FFF70FBD00BF440940207C
:1030300038B5074C0023054608462360FEF7B6FA6C
:10304000431C00D038BD2368002BFBD02B6038BD5B
:103050005809402010B50C46B1F90E1000F054F993
:10306000002803DB236D0344236510BDA38923F4EB
:103070008053A38110BD00BF2DE9F0411646B1F980
:103080000C201F46D3050C46054607D50022022317
:10309000B1F90E1000F022F9B4F90C20B4F90E10B9
:1030A00022F48052A2813B4632462846BDE8F041D8
:1030B00000F014B810B50C46B1F90E1000F00EF97E
:1030C000A389421C0EBF23F4805343F48053206530
:1030D000A38110BDB1F90E1000F078B870B50D469F
:1030E000084C114606461A46284600232360FDF781
:1030F00045FA431C00D070BD2368002BFBD0336021
:1031000070BD00BF580940202DE9F8432C4D0646FC
:10311000286898460F469146FFF794FC294B1C6897
:10312000D4F84831002B3ED05A681F2A1CDC02F12B
:10313000010E76B103EB82010124C1F88890D3F827
:10314000880194402043022EC3F88801C1F8088109
:1031500023D00232C3F804E0286843F82270FFF756
:1031600073FC0020BDE8F883174B0BB34FF4C87015
:10317000FFF79AFC0346D8B1D4F848210260002139
:1031800041600A46C4F848014FF0010EC0F88811AA
:10319000C0F88C11002EDCD0CCE7D3F88C110C4396
:1031A000C3F88C41D5E704F5A673C4F84831BBE7F2
:1031B0002868FFF749FC4FF0FF30BDE8F88300BFF7
:1031C0004004402044334000A92A400038B5074C51
:1031D0000023054608462360FEF714FA431C00D07E
:1031E00038BD2368002BFBD02B6038BD5809402028
:1031F00070B559B105460C4610B1836B002B3CD01D
:10320000636ED80705D5B4F90C302BB900263046CB
:1032100070BDA38999053CD521462846FFF764F97E
:10322000E36A064633B1E169284698470028B8BFEB
:103230004FF0FF36A3891A0622D4216B41B104F165
:103240004003994202D02846FFF7E8FA002323639F
:10325000616C21B12846FFF7E1FA00236364FFF7B0
:1032600067FA636E0022DB07A2810ED5A06DFFF71F
:10327000E7FBFFF763FA304670BDFFF72DFABFE7B3
:1032800021692846FFF7CAFAD7E7A06DFFF7DCFBF4
:10329000ECE7A06DFFF7D6FBB4F90C30002BBBD1E7
:1032A000666E16F00106B1D1A06DFFF7CDFB30467A
:1032B00070BD00BF38B50B46074C05461146184691
:1032C00000232360FEF7AAF9431C00D038BD236811
:1032D000002BFBD02B6038BD5809402070B50D463F
:1032E000084C114606461A46284600232360FEF77E
:1032F000A5F9431C00D070BD2368002BFBD03360C0
:1033000070BD00BF5809402070B50D46084C1146ED
:1033100006461A46284600232360FDF705F9431C9C
:1033200000D070BD2368002BFBD0336070BD00BFA0
:103330005809402000C20100C00000000008000041
:103340000000000018004020F8B500BFF8BC08BC21
:103350009E467047C924400065014000F8B500BF93
:0C336000F8BC08BC9E46704741014000CC
:08336C00F0EBFF7F01000000FF
:10337400BFF35F8F0138FBD17047010000093D00A6
:10338400180040200000000000000000040340205A
:103394006C034020D4034020000000000000000023
:1033A4000000000000000000000000000000000019
:1033B4000000000000000000000000000000000009
:1033C40000000000000000000000000000000000F9
:1033D40000000000000000000000000000000000E9
:1033E40000000000000000000000000000000000D9
:1033F40000000000000000000000000000000000C9
:1034040000000000000000000000000000000000B8
:1034140000000000000000000000000000000000A8
:103424000000000000000000000000000000000098
:1034340001000000000000000E33CDAB34126DE635
:10344400ECDE05000B00000000000000000000009E
:103454000000000000000000000000000000000068
:103464000000000000000000000000000000000058
:103474000000000000000000000000000000000048
:103484000000000000000000000000000000000038
:1037B40034094020000000000000000044044020C0
:1037C400440440204C0440204C0440205404402035
:1037D400540440205C0440205C04402064044020E5
:1037E400640440206C0440206C0440207404402095
:1037F400740440207C0440207C0440208404402045
:10380400840440208C0440208C04402094044020F4
:10381400940440209C0440209C044020A4044020A4
:10382400A4044020AC044020AC044020B404402054
:10383400B4044020BC044020BC044020C404402004
:10384400C4044020CC044020CC044020D4044020B4
:10385400D4044020DC044020DC044020E404402064
:10386400E4044020EC044020EC044020F404402014
:10387400F4044020FC044020FC04402004054020C3
:10388400040540200C0540200C0540201405402070
:10389400140540201C0540201C0540202405402020
:1038A400240540202C0540202C05402034054020D0
:1038B400340540203C0540203C0540204405402080
:1038C400440540204C0540204C0540205405402030
:1038D400540540205C0540205C05402064054020E0
:1038E400640540206C0540206C0540207405402090
:1038F400740540207C0540207C0540208405402040
:10390400840540208C0540208C05402094054020EF
:10391400940540209C0540209C054020A40540209F
:10392400A4054020AC054020AC054020B40540204F
:10393400B4054020BC054020BC054020C4054020FF
:10394400C4054020CC054020CC054020D4054020AF
:10395400D4054020DC054020DC054020E40540205F
:10396400E4054020EC054020EC054020F40540200F
:10397400F4054020FC054020FC05402004064020BE
:10398400040640200C0640200C064020140640206B
:10399400140640201C0640201C064020240640201B
:1039A400240640202C0640202C06402034064020CB
:1039B400340640203C0640203C064020440640207B
:1039C400440640204C0640204C064020540640202B
:1039D400540640205C0640205C06402064064020DB
:1039E400640640206C0640206C064020740640208B
:1039F400740640207C0640207C064020840640203B
:103A0400840640208C0640208C06402094064020EA
:103A1400940640209C0640209C064020A40640209A
:103A2400A4064020AC064020AC064020B40640204A
:103A3400B4064020BC064020BC064020C4064020FA
:103A4400C4064020CC064020CC064020D4064020AA
:103A5400D4064020DC064020DC064020E40640205A
:103A6400E4064020EC064020EC064020F40640200A
:103A7400F4064020FC064020FC06402004074020B9
:103A8400040740200C0740200C0740201407402066
:103A9400140740201C0740201C0740202407402016
:103AA400240740202C0740202C07402034074020C6
:103AB400340740203C0740203C0740204407402076
:103AC400440740204C0740204C0740205407402026
:103AD400540740205C0740205C07402064074020D6
:103AE400640740206C0740206C0740207407402086
:103AF400740740207C0740207C0740208407402036
:103B0400840740208C0740208C07402094074020E5
:103B1400940740209C0740209C074020A407402095
:103B2400A4074020AC074020AC074020B407402045
:103B3400B4074020BC074020BC074020C4074020F5
:103B4400C4074020CC074020CC074020D4074020A5
:103B5400D4074020DC074020DC074020E407402055
:103B6400E4074020EC074020EC074020F407402005
:103B7400F4074020FC074020FC07402004084020B4
:103B8400040840200C0840200C0840201408402061
:103B9400140840201C0840201C0840202408402011
:103BA400240840202C0840202C08402034084020C1
:103BB400340840203C0840203C084020FFFFFFFF21
:043BC40000000200FB
:04000005004012F5B0
:00000001FF
